:100000000C942A000C9447000C9447000C94470071
:100010000C9447000C9447000C9447000C94470044
:100020000C9481000C9447000C9447000C944601FA
:100030000C9447000C947F010C9447000C944700EB
:100040000C9447000C9447000C9447000C94470014
:100050000C94470011241FBECFE5D4E0DEBFCDBF16
:1000600010E0A0E6B0E0E4E0F4E002C005900D92FC
:10007000A236B107D9F722E0A2E6B0E001C01D9296
:10008000A337B207E1F70E9449000C9400020C94D8
:1000900000000E94A9000E94B200FDCFCF93DF9321
:1000A00000D000D00F92CDB7DEB783E38A831982E8
:1000B0001B8288ED8C8386E88D83CE0101960E9499
:1000C000B2010F900F900F900F900F90DF91CF9192
:1000D00008958EB581608EBD1DBC1CBC89B784603F
:1000E00089BF789410926F02109270021092710280
:1000F00010927202089580E687B986B1876C86B93E
:1001000008951F921FB61F9211248F939F93AF9350
:10011000BF9380916F0290917002A0917102B09193
:1001200072020196A11DB11D80936F02909370021F
:10013000A0937102B0937202BF91AF919F918F9182
:100140001F901FBE1F901895369A349BFECF85B125
:1001500008950E944E000E9469000E947B00109248
:1001600062020895EF92FF920F931F93CF93DF9354
:10017000809162028130E9F1882351F0823009F4E4
:100180006BC0DF91CF911F910F91FF90EF90089579
:10019000C0916D000E94A400EC2FF0E0E250FE4FF1
:1001A0008083E0916D0080916F0290917002A09128
:1001B0007102B091720224E0E29FF0011124E25931
:1001C000FF4F80839183A283B38380916D008F5F03
:1001D00080936D008FE19EE40197F1F700C000006D
:1001E00090916D0081E0943608F480E08093620283
:1001F000C8CFCEEFD1E00EE610E080E4F82E9BE30E
:10020000E92EF0926200899180936300F801619178
:100210007191819191918F010E94F9016093640025
:10022000709365008093660090936700E092680089
:1002300067E070E082E690E00E94BE010E94DD016E
:100240008823E1F3F2E0C236DF07D9F661E070E01F
:1002500080E690E00E94D0010E94EB018130A1F481
:1002600080916000873481F4109262028EE4809362
:10027000600010926F021092700210927102109240
:10028000720210926D007DCF82E0B0CF2F932FB716
:100290002F933F934F935F938F939F93EF93FF938E
:1002A000F8948CB1409163025091640220916502F0
:1002B0003091660242175307B0F48032A1F02091CA
:1002C000630230916402E0916702F0916802E20FEC
:1002D000F31F808380916302909164020196909352
:1002E0006402809363027894FF91EF919F918F91C4
:1002F0005F914F913F912F912FBF2F9118952F9381
:100300002FB72F933F938F939F93EF93FF93F8947F
:100310008091690290916A02019690936A0280939B
:1003200069022091690230916A0280916B0290917A
:100330006C022817390760F48091690290916A0273
:10034000E0916D02F0916E02E80FF91F80818CB987
:100350007894FF91EF919F918F913F912F912FBFB3
:100360002F911895FC01808180BD818189B982819E
:100370008BB983818AB9848180BD089590936E0280
:1003800080936D0270936C0260936B0210926A020C
:10039000109269025D9BFECFFC0180818CB90895AB
:1003A000909368028093670270936602609365027F
:1003B0001092640210926302089540916902509174
:1003C0006A0220916B0230916C0281E04217530760
:1003D00008F480E0089540916302509164022091F6
:1003E00065023091660281E04217530708F480E00D
:1003F00008956927962769277827872778270895FA
:04040000F894FFCF9E
:020404004E00A8
:00000001FF
